:020000040000FA
:0200000087284F
:04000800803191288A
:02000E00A80840
:10001000031D0B280800F93000000000000000005C
:1000200000000000000000000000000000000000D0
:10003000FF3E031D0C28000000000000000000002F
:1000400000000000000000000000000000000000B0
:10005000A80B0B280800280823009A009E1C2E28B5
:100060000800200091149112210091109112230098
:100070001F129F159F101F101E139E161E129E11F9
:100080001E111E109D171D139D121D169C011F3061
:100090009B0008007A302100990022009D171D1551
:1000A000303021008C0023008C0120008C01312095
:1000B000C8302000A80007200130A7009030A80019
:1000C0002B2020002708A8002B207F302000A8002C
:1000D0002B2020008C143230A80007209030A8007C
:1000E0002B2020002708A8002B202000A8012B206F
:1000F00020008C103230A80007200C11A70A270816
:100100007F3C03185E280130A7000C155E282000F4
:10011000A601A401A501A001A101A201A3018031B2
:100120004A280B1D0900053020009500A00A03197C
:0E013000A10A0319A20A0319A30A0B11090060
:020000040001F9
:02000E00A4FF4D
:02001000FFDE11
:00000001FF
