:020000040000FA
:0200000077285F
:0400080080317928A2
:02000E002000D0
:100010009110911221009110911623001F129F152B
:100020009F101F101E139E121E129E111E111E10D5
:100030009D131D139D161D169C011F309B0008006B
:100040002100951295111511951415148B160B118D
:100050000800240095111515951415107F30930094
:100060007908FA0003107A0D920021009115200002
:100070009111240095160800F901FA0120000C1EC8
:10008000FA0AFA0803197914FB018C1DFB0AFB0814
:100090000319F9147908FC0008007A30210099004E
:1000A0000030F9002030F0007908F1002030F9002C
:1000B0003430F2007908F300F601F80126308C00A4
:1000C00023008C0120008C0122009D171D153C206F
:1000D0007C08F70077087038F900292020200720D5
:1000E0008B170B179D1C72281D121D16722880314C
:1000F0004D282000911DE52891112400941AAD2867
:100100001108FD00141DAB287008FE007108FF00E7
:100110007208F0007308F1007E08F2007F08F30017
:10012000F6017108850070088400003080003330CB
:10013000840700308000730885007208840000087E
:100140002100B800333084078008031DB817380831
:1001500024009100E3289101E3281419CF28110805
:10016000013A0319B728033A0319CC28E328710888
:1001700085007008840000308000730885007208D4
:10018000840000308000F60123009D1720000C142D
:10019000C830F400F501E32823009D13E3289513EC
:1001A0007308850072088400000876020318E228AC
:1001B00073088500720A84007608F60A840700082E
:1001C0009100E3289101240015162000911E212999
:1001D000710885007008840031300002031814296A
:1001E00071088500700A8400FD01831BFD0A040864
:1001F000FE0084030008800AFE077E088400831343
:100200007D18831723001908800020000C14023089
:100210007402750803180E2903191029F51F2029E7
:100220000230F400F50120290C14710885007008D3
:1002300084003330840701308000C830F400F501B9
:1002400091120B1D090005309500F408031D2B29A0
:10025000F50803193329F4080319F503F40B3329BE
:0A026000F50803190C100B1109003A
:020000040001F9
:02000E00A4FF4D
:02001000FFDE11
:00000001FF
